:020000040800F2
:10000000380B0020610200089F2300088D220008A1
:1000100000000000000000000000000000000000E0
:10002000000000000000000000000000892500081A
:100030000000000000000000F12300082D28000847
:1000400073020008730200087302000873020008BC
:1000500073020008730200087302000873020008AC
:10006000730200087302000873020008730200089C
:10007000730200087302000873020008B129000827
:100080007D2A000873020008000000009128000883
:10009000730200087302000873020008730200086C
:1000A000730200087302000873020008D52B0008D1
:1000B0007302000800000000730200080000000046
:1000C00000F002F800F0BDF80CA030C80838241881
:1000D0002D18A246671EAB4654465D46AC4201D180
:1000E00000F0AFF87E460F3E0FCCB64601263342F5
:1000F00000D0FB1AA246AB46334318476C3C0000C5
:100100008C3C0000103A02D378C878C1FAD8520764
:1001100001D330C830C101D504680C6070470000BD
:100120000023002400250026103A01D378C1FBD813
:10013000520700D330C100D50B60704710B56E294F
:1001400002D100F09CFC10BD702902D100F0EBFD43
:1001500010BD662902D103F0C9FC10BD652902D18A
:1001600003F0C4FC10BD672902D103F0BFFC10BD31
:10017000612902D103F0C2FC10BD03681B0A01D340
:1001800080231943692902D100F0FEF810BD6429CB
:1001900002D100F0F9F810BD752902D100F0F4F891
:1001A00010BD6F2902D100F069FD10BD782902D180
:1001B00000F0A6FD10BDE92902D100F005FD10BD3B
:1001C000E42902D100F000FD10BDF52902D100F0B4
:1001D000FBFC10BDEF2902D100F05CFD10BDF82939
:1001E00002D100F09BFD10BD0368DB0901D3802321
:1001F0001943632902D100F07DFC10BD732902D19F
:1002000000F080FC10BDE32902D101F092F910BD8D
:10021000F32902D101F095F910BD002010BD1FB5E2
:1002200001F0FCF904000020002103F0F1FB401C68
:1002300060600020002103F0D5FBE0601FBD10B519
:1002400010BD01F0C3F91146FFF7E9FF03F082F892
:1002500001F058FD03B4FFF7F2FF03BC01F05EFDAF
:100260000748804707480047FEE7FEE7FEE7FEE74E
:10027000FEE7FEE704480549054A064B70470000C3
:1002800031280008C100000838050020380B002084
:1002900038070020380700201CB50C46064B7B446D
:1002A00069460090204600F002FC044600206946A2
:1002B00000F010FC20461CBD330800000FB41CB534
:1002C000084B06AA7B4469460090059800F0EFFBB6
:1002D00004460020694600F0FDFB20461CBC08BC1B
:1002E00004B018470D08000070B504468569006821
:1002F000C10601D5302600E02026C00707D070BD1A
:1003000062683046A1689047206A401C20626D1EDA
:10031000F6D570BD70B5044685690078C00707D171
:1003200070BD6268A16820209047206A401C20624E
:100330006D1EF6D570BD70B50C460546012A05D078
:100340002878800600D5EA69002302E0012305E051
:100350005B1C934202D2E05C0028F9D1A869E61840
:10036000C01AA861286AC01828622846FFF7BCFF97
:1003700004E06A682078A968641C9047B442F8D306
:100380002846FFF7C7FF70BDF7B50025752910682F
:10039000009914A611D000F008FB002802DA4042B0
:1003A00011A608E0009909688A0701D50FA602E0A6
:1003B000490704D50EA6012501E000F0FFFA009FD1
:1003C0000024243704E000F0DFFC30313955641C90
:1003D0000028F8D12B4632462146009800F0F7FA63
:1003E000FEBD0000000000002D0000002B000000FA
:1003F00020000000F3B50446002081B020622046B2
:10040000E1688847002872D0252802D06268A16878
:10041000ABE0594F00267F442046E16888472028FA
:10042000054608DB312D06D27819203800780028DF
:1004300001D00643F0E7B00701D504208643002031
:10044000E0610746A0612A2D0AD0284602F0CEFCC2
:10045000002827D0B8000019303D0090856119E0D0
:100460000298BA00121902C8916102902046E16810
:100470008847012F054617D1E06900281FDA2020A0
:1004800086431CE000980A2180694843009940197E
:10049000303888612046E1688847054602F0A6FCAE
:1004A0000028EFD1012F0AD02E2D08D12046E16877
:1004B00088470546202006437F1C022FC3DBA06926
:1004C000002803DA4042A06101200643F00701D072
:1004D000102086436C2D0BD0682D09D04C2D3CD0BC
:1004E0006A2D38D0742D38D07A2D36D016E040E001
:1004F000E1682F4620468847B842054609D16C2F4F
:1005000029D001208002E16806432046884705463D
:1005100004E06C2F1DD0FF2001300643002D28D0B1
:1005200028464138192803D80120C0020643203547
:10053000204626602946029A1646FFF7FFFD00284E
:1005400010D001280BD0F61DF008C0000830029032
:1005500055E74020E1E78020D5E70020D3E7361DAE
:1005600002964CE762682846A1689047206A401CC2
:1005700044E7206AFEBD0000F236000010B5024AD2
:1005800000F0DEFB10BD0000B0000020401ECAB22B
:100590004178401C8A4202D00029F9D100207047DE
:1005A00030B505460B462A461C781078521C5B1C59
:1005B000002801D0A042F7D0002C03D0002802D0A0
:1005C0006D1CEFE7284630BD034670B502460B436D
:1005D0009B070FD10E4CE60100E008C208C91D1BA5
:1005E0009D433542F9D0D9B21170521C00290DD06B
:1005F0001B0AF8E70B78491C1370521C002B05D01E
:100600000B78491C1370521C002BF3D170BD0000F5
:10061000010101010022CBB20178401C994200D1B6
:10062000421E0029F8D110467047000030B5441C26
:1006300003E00178401C00290DD08107F9D10B4B54
:10064000DD0104C8D11A91432940FAD0001B0A06E3
:1006500003D0C01E30BD001B30BD0A0401D0801E77
:1006600030BD0902FCD0401E30BD00000101010177
:10067000421E5378521C002BFBD10B78491C13707F
:10068000521C002BF9D1704701E004C0091F042956
:10069000FBD28B0701D50280801CC90700D00270F5
:1006A000704700290BD0C30702D00270401C491EBE
:1006B000022904D3830702D50280801C891EE3E748
:1006C0000022EEE70022DFE7F8B507460B46394681
:1006D0001943890713D1164CE601042A0FD302CB24
:1006E0000D1B8D43354202D102C0121FF5E7CBB27C
:1006F0000370401C521E002B13D0090AF7E7002A92
:1007000014D01978521E5B1C0170401C002908D0BF
:10071000002A0BD01978521E5B1C0170401C002966
:10072000EDD1002A02D01146FFF7CAFF3846F8BDC6
:1007300001010101024670B50A4392072AD11E4DFC
:10074000EE0104C808C9541B9443344017D0D0B2FA
:10075000D9B2401A2106014310D190B299B2401A81
:10076000210401430AD110021902000A090A401AA1
:100770002102014302D1100E190E401A70BD9A4297
:10078000DFD010BA19BA884201D9012070BD00200B
:10079000C04370BD02780B78401C491C002A09D068
:1007A0009A4207D102780B78401C491C002A01D0DC
:1007B0009A42EFD0D01A70BD010101010022030955
:1007C0008B422CD3030A8B4211D300239C464EE06C
:1007D00003460B433CD4002243088B4231D3030928
:1007E0008B421CD3030A8B4201D394463FE0C309DA
:1007F0008B4201D3CB01C01A524183098B4201D3F2
:100800008B01C01A524143098B4201D34B01C01ADC
:10081000524103098B4201D30B01C01A5241C30854
:100820008B4201D3CB00C01A524183088B4201D3C3
:100830008B00C01A524143088B4201D34B00C01AAF
:100840005241411A00D201465241104670475DE0C4
:10085000CA0F00D04942031000D340425340002247
:100860009C4603098B422DD3030A8B4212D3FC22F0
:10087000890112BA030A8B420CD3890192118B426F
:1008800008D3890192118B4204D389013AD0921185
:1008900000E08909C3098B4201D3CB01C01A524140
:1008A00083098B4201D38B01C01A524143098B4209
:1008B00001D34B01C01A524103098B4201D30B01F2
:1008C000C01A5241C3088B4201D3CB00C01A524117
:1008D00083088B4201D38B00C01A5241D9D24308FE
:1008E0008B4201D34B00C01A5241411A00D201463B
:1008F000634652415B10104601D34042002B00D5A5
:100900004942704763465B1000D3404201B5002066
:10091000C046C04602BD7047704770470102C2150D
:1009200004D00123DB071943002A0ADB9E239A1A0D
:1009300002D40846D0407047FF224100120691427F
:1009400001D900207047C017C04370471F22030C15
:1009500002D10F2200041CD0030E01D10002083A7C
:10096000030F01D10001121F830F01D18000921EDD
:10097000002801DB4000521ED20551180212511806
:100980001922904004D3491C002801D1490849008C
:1009900008467047C10FC90700D0404201229207A4
:1009A0001143D3E701218907D0E709684A0501D53A
:1009B00040B27047C905FCD500B2704709684A05C6
:1009C00001D5C0B27047C905FCD580B27047FFB5EC
:1009D00004460D4681B0243000902168880604D575
:1009E0001022E0699143216000E00120A84201DD6E
:1009F000471B00E000270498A1697A191018081A0B
:100A0000A0612078C00602D42046FFF76DFC0026C6
:100A100008E003986268A168805D9047206A401CE6
:100A2000761C206204988642F3DB2078C0060AD543
:100A30002046FFF759FC06E06268A1683020904725
:100A4000206A401C206238467F1E0028F4DC07E044
:100A500000986268A168405D9047206A401C20624F
:100A600028466D1E0028F3DC2046FFF753FC207853
:100A7000000602D5022005B0F0BD0120FBE7116899
:100A80000268006A530501D5087009E0D30501D555
:100A9000088005E0130602D5C21705C100E0086012
:100AA0000120704701694A1C02610878704700B54F
:100AB0008FB002910021059105490193794403917A
:100AC000114604906846FFF795FC0FB000BD00008A
:100AD000E5FFFFFF0A681070521C0A60704710B5EE
:100AE0004369002B02D0C046C04601E0FFF723FC5B
:100AF000012010BD1278014624310A7000224A708C
:100B00000122ECE711680022D243E8E7F7B504467A
:100B1000154686B02B487844002703C83E4600900F
:100B2000019111E007986A467100415A02A800F04D
:100B30000CFD411C07D02178890603D5E2693918DC
:100B400091420ED83F18761C2078800602D5E069C5
:100B5000B84206DDAE42E5DB07987100405A002836
:100B6000E0D1A069C01BA0612046FFF7BDFB15487E
:100B700078445A3803C800900020019116E04100E3
:100B80006A460798415A02A800F0DFFC0590401C15
:100B90000AD0002505E0626802A8A168405D904780
:100BA0006D1C05988542F6D30498401CB042049011
:100BB000E5DB206AC01920622046FFF7ABFB09B0D5
:100BC000F0BD000006300000F7B5D21D0025D208A8
:100BD00015A6D200F52905CA11D0002A05DA002190
:100BE0004042914111A60A4608E0009909688B0726
:100BF00001D50FA602E0490701D50EA60125114631
:100C0000009F0024243704E000F0D2F830323A5537
:100C1000641C02460A43F7D12B463246214600980F
:100C2000FFF7D5FEFEBD0000000000002D00000013
:100C30002B0000002000000070B504460021243481
:100C400008E05507D2086D0F303565545D072A431B
:100C5000DB08491C15461D43F3D10468002310A28C
:100C6000250708D5A40601D4002904D0C4690123AE
:100C70000CA2641EC461FFF7AAFE70BD10B5044645
:100C800021461068FFF79AFE002302462046FFF730
:100C9000D3FF10BDD21DD108C9000CC9CCE700009C
:100CA0000000000030000000F8B50F46018809057B
:100CB00002D5224C7C4402E0204C7C440E34054694
:100CC0000021243508E016071209360FA65D6E5480
:100CD0001E0732431B09491C16461E43F3D1224608
:100CE00004780023240705D5702F06D0002901D0F1
:100CF00002231132FFF76BFEF8BD01231032F9E732
:100D000070B504460D4621461068FFF757FE0023D4
:100D1000024629462046FFF7C7FF70BDD21DD30803
:100D2000DB000CCBC0E730B40368202412682343F7
:100D300003600823C36130BC0023B5E7702E0000B8
:100D4000F8B515460E46040003D12C68002C00D1DE
:100D50000CA4204600F02AFC0419207800280ED0AC
:100D600027463146384600F010FC04192078002848
:100D700002D000202070641C38462C60F8BD00278B
:100D8000FAE700000000000001468008081A020986
:100D90001018020A1018020C1018C008820012184D
:100DA0005200891A01E0401C0A390A29FBD2704717
:100DB0000B4670B5024689078008084319469D080E
:100DC000141AA94125090807054308092C194841A7
:100DD000250A01060D43010A2C194141200C0D047E
:100DE00028430D0C00194D41002140194D41C00808
:100DF00069070843E908840F8D00254384002418FF
:100E00004D4124196D41121BAB4107E00925ED430B
:100E10002C11521963410024401C61411C460A25D3
:100E20000026551BB441F1D270BD00007047FFB5DC
:100E30000C461E468FB003CA089009914F007D0DE5
:100E400000D16D1E002108460020C0460321099AEA
:100E500089050840002A03DA82008018400808400B
:100E6000800D01280A9002DD0020C0430A900898F6
:100E700007430DD0F048F149281848430714189843
:100E800000281DD07542291E1DDD0A9842421BE034
:100E90001898012802D00020302104E00020F243FD
:100EA00005E02154401CB042FBDB30460022189B79
:100EB000002121540F998B600A60486013B0F0BD87
:100EC000BD1B6D1CDFE70A9A002900DA69420BA8F6
:100ED00000F0ECFB0BAB07CB03AB07C308990998F9
:100EE00000F050FC6B4607C30146D5480918002D99
:100EF00000910BDDD24903980A9A49424018002319
:100F000003A90390684600F0ADFE08E003990A9A31
:100F10000023081803A90390684600F04DFE6B46B5
:100F200007C30004000C03D00020C043410800E0C8
:100F30001046189A002A03D00022009215461EE09F
:100F4000751E05D4FFF734FF303262556D1EF9D59A
:100F500001220843079602D000227F1C04E020787B
:100F6000302801D100227F1E002A069787D01EE07C
:100F7000112D07DAFFF71CFF303262556D1C024657
:100F80000A43F5D1084303D00098002819D00EE099
:100F90000021681E05E0235C625C63542254401EFD
:100FA000491C8142F7DBA81B401E07950690079A53
:100FB00018990020A0540F98079B069A81600CC0D6
:100FC0007CE711260020189059E7D21DF0B50D4698
:100FD0000446D10893B0C90003C90C900D9101F0EB
:100FE000EFFE02460D98C00F01D02D2007E02068CB
:100FF000810701D52B2002E04007C00F4001032AE2
:101000000F9001D0072A05DB03462946204600F051
:1010100009FB0EE12078800601D5E76900E006278C
:101020002846652D04D0662814D0672D69D12DE09F
:101030000020112F009001DB112300E07B1C0CAA83
:1010400003A910A8FFF7F3FE1199002610987D1C44
:101050000E9142E001203B460CAAC0070B900120F4
:10106000009003A910A8FFF7E2FE119D12981099B5
:10107000002600280E9501D1781C0D18781B02D48B
:1010800046427D1C761EE81B00903AE0012F00DAF4
:1010900001270020112F009001DD112300E03B46C5
:1010A0000CAA03A910A8FFF7C2FE11993D4610989B
:1010B00000260E91217809070BD40E99A94200DA77
:1010C0000D4603A9012D04DD4A19203AD27F302AAA
:1010D00006D0B84201DA011D04DA012100910FE0C7
:1010E0006D1EEFE7002802DC86192D1A03E0411C73
:1010F000A94200DD0D46801B401C00900120C00766
:101100000B902078000705D40098A84202DB00204D
:10111000C043009069460020C8720B98012102AFBD
:101120000337C907884225D0022010902B20119048
:101130000B9800280BDA40420B902D20119006E00E
:101140000B98FFF721FE30317F1E0B9039701099FC
:10115000481E00291090F3DC0B980028F0D111985C
:101160007F1E38702088000501D5452000E06520ED
:101170007F1E387001A8C01BC01D0B900F9800285F
:1011800000D0012041190098C01709180B980818C1
:10119000A169081A401EA0612078C00602D420462A
:1011A000FFF7A2F80F98002805D06268A168904761
:1011B000206A401C20622078C00625D52046FFF713
:1011C00093F821E0002E07DB0E98B04204DD03A85F
:1011D0006268805DA16802E06268A1683020904783
:1011E000206A761C401C20620098401E0028009057
:1011F0000AD100F013FAC06862680168405CA16817
:101200009047206A401C206228466D1E0028D9DCC9
:1012100007E062683878A1687F1C9047206A401C0C
:1012200020620B99481E00290B90F2DC2046FFF744
:1012300071F8032042E6000001FCFFFF104D0000A2
:10124000E1DFFFFFD21DF0B504460D46D0088DB09A
:10125000C000466807683146384601F0B1FD0246D5
:10126000F00F01D02D2307E02068810701D52B2343
:1012700002E04007C00F43016846002B037001D015
:10128000012000E00020032A0A9001D0072A04DB95
:101290002946204600F0C6F92DE12078800601D4C9
:1012A0000D2500E0E5697000400D0D2D01904BDA31
:1012B000300D00210B9008460020C046032189050F
:1012C0000840002E05DA82008018C20F1018401066
:1012D00008408015012801DD0020C043A90000233B
:1012E000182906D39C460A460123183A1B07D34007
:1012F00003E001221205CA4094460C31202902D392
:101300003A46203900E032468A40002802DD002AB1
:1013100006D119E0002817D10121C9078A4213D349
:10132000194663467F185E41002806D10120C00798
:10133000824202D1084687439E430B98310D814279
:1013400002D00198401C01902088000502D5714907
:10135000794402E06F49794419396B460A98302282
:101360001A540A980A7C401C1A54401C0A9001988E
:10137000002801DC302000E031201872019A0120A1
:10138000002A02D0644BD21804E072003A4302D023
:10139000614A521C0192002D02DC2278120703D50B
:1013A0006A462E20507202200022864694460CE0A7
:1013B00032033601120F6D1E8B5C02AA1354624673
:1013C000521C401C9446052A01DA002DF0DC002254
:1013D00002AE08E03B0F3F01CB5C521C6D1E335444
:1013E000401C082A01DA002DF4DC23689A0601D596
:1013F00011E0401E704504DD3218203AD27F302AB9
:10140000F7D0002807DD3218203AD27F2E2A02D1E9
:101410001A0700D4401E002D03DD3E223254401C2A
:101420006D1E497C31540199401C002906DA2D219A
:10143000471C315401984042019003E02B21471C86
:10144000315401987D21C900884206DBFFF7C0F9BD
:101450003030F0557F1C019101E0642808DB0198D1
:101460006421FFF7B5F93030F0557F1C019101E0A0
:101470000A2806DB01980A21FFF7AAF93030F05557
:101480007F1C01980A21FFF7A3F93031F1550A9822
:10149000A1697F1C7A191018081AA0612078C0066B
:1014A00002D42046FEF720FF216A6E460A980818EB
:1014B000206204E062683078A168761C90470A9840
:1014C000401E0A90401CF5D12078C00602D5204667
:1014D000FEF70AFF02AE09E03078761C3E280DD0F8
:1014E0006268A1689047206A401C20627F1EF3D288
:1014F0002046FEF70FFF0DB00320F0BD206A401913
:10150000206203E06268A168302090476D1EEDD331
:10151000F8E700000F28000001FCFFFF10B5436949
:10152000002B02D0C046C04601E0FFF7EFFA0120D1
:1015300010BD12880146243182840022C284012217
:10154000ECE711680022D243E8E770B516460C4676
:10155000054600F05BF80368FF200230C05C0128FC
:1015600007D0FF2C0ED8185D00280BD001202C705E
:1015700070BDFF333246214608331868C318284629
:10158000984770BD0020C04370BD30B503461D783C
:10159000002D03D00A4603E0AC4201D1181A30BD39
:1015A0001478521C002CF7D15B1CF0E730B50346D1
:1015B0001D78002D08D00A461478521C002C03D048
:1015C000AC42F9D15B1CF3E7181A30BD754600F048
:1015D000A1FBAE46050069465346C008C0008546DB
:1015E00018B020B5FEF746FE60BC00274908B64695
:1015F0000026C0C5C0C5C0C5C0C5C0C5C0C5C0C522
:10160000C0C5403D49008D467047000010B500F050
:1016100005F8001D10BD00BFF92300000048704709
:10162000F4040020F8B51F46044601230068DB02DD
:10163000032601461840072A05DB002801D017A51C
:1016400006E017A504E0002801D016A500E016A5C5
:10165000102081432160A069C01E002FA06101D02D
:10166000401EA0612046FEF73FFE002F09D03846FD
:101670006268A1689047206A401C2062C01C2062FA
:1016800006E0206AFAE762682878A1686D1C904736
:10169000761EF8D22046FEF73DFEF8BD4E414E00C4
:1016A0006E616E00494E4600696E6600F7B51646DB
:1016B0008AB0334878446C4603467C33C06F5A681E
:1016C0009B680DC42E487844763003AC0DC80DC419
:1016D0003720C001081837211B30FFF779F805467D
:1016E0000C46803D1B3C02D56442012000E00020F6
:1016F0000027099010E0E0070CD00C202049784327
:10170000794432464C3941186846012300F054FAB6
:101710006B4607C364107F1C002CECD1184F7F442C
:101720002E3F16E0E80712D02001C0190EC806911E
:10173000089307920068F04201D198190890324648
:10174000012306A903A800F037FA03AB07C36D1005
:10175000641C002DE6D10998002806D0324669465F
:10176000012303A800F07EFA05E001233246694612
:1017700003A800F021FA0A9B07C30DB0F0BD0000DA
:10178000C0240000034640000A4610B5400D0BD0AF
:101790000121C9070F24A40200191C036408214376
:1017A000540D2143D20207E000210120F2E7D40FBB
:1017B000490021435200401E0029F8DADB0FDB0705
:1017C000184310BDFFB50D46144685B048685168F2
:1017D00001F0D0FA00910190A868A16801F0CAFA5E
:1017E00002910390A868616801F0C4FA029A121885
:1017F0008242029201D2012000E00020019A0B18DF
:10180000D2180028019202D08A4202D903E08A420B
:1018100001D2012000E000200099081800906868BB
:10182000A16801F0A7FA029A12188242029201D22C
:10183000012000E00020019A0B18D2180028019224
:1018400002D08A4202D903E08A4201D2012000E09C
:10185000002000990818009028682168400049007D
:10186000400849084018FA49471814E00199400017
:10187000C90F08430090019802994000C90F08431E
:101880000190029803994000C90F08430290039801
:1018900040007F1E039000980028E7DA089800288F
:1018A00001D0EC4E00E00026B74201DA012000E052
:1018B0000020002804902AD0F71BF806C00E15D08F
:1018C000029B2021091A039A8B401A430392029A21
:1018D000019BC2408B401A430292019A009BC24076
:1018E0008B4000991A430192C14000917B110DD0A9
:1018F0006F460320C11A03D500218200B95003E0CE
:101900008A008100BA587A50401EF3D537460398B2
:101910000299002800D00120014308980291002874
:1019200008460CD0002800D001200199019A4905F1
:1019300008430121D20AC902D202019200E001212A
:101940000E9B0122D207012B02D0002B03D013E003
:10195000002807D120E0904204D890420CD1019B8E
:101960000B4209D0019B5918019105D10099491CDE
:10197000009101D17F1C009200280DD01021084653
:101980000020C0460498002806D00F98002803D0F5
:10199000082108460020C04628682168019B009A5B
:1019A0004840C10F0598C90739430EC009B0F0BDC2
:1019B000FFB587B0099A08980899536892684068FB
:1019C000896896460022039317469446089A12683F
:1019D0005300099A5B081268520052089A1A9E4BEB
:1019E000D4180A9A002A01D0352200E0402206923B
:1019F0000022012315460492DB07059324E0002D05
:101A000005D175460346039E4D1BB34109D3754668
:101A10006646039B491B049D9841059B7519AC467E
:101A20005F4163463B4308D0059B049EDD07760873
:101A30002E435B080496059301E0521E641EC50FF9
:101A4000ED0749184041521C069B9A42D7DB002DF6
:101A500004D17546039A6B1A824101D203200CE02F
:101A6000039A0B466B404240134303D0014303D01B
:101A7000012002E0022000E00020614601910021E7
:101A8000009702910A99002905D06146400201435E
:101A9000704B019102E08007002302909C4201DA22
:101AA000012000E0002007003AD01A1BD006C00E2B
:101AB00015D0029D2021019C091AC5408C40254368
:101AC000029C8C4000D001242543019C0295009D7E
:101AD000C4408D4000992C430194C14000915411A1
:101AE0001DD06D460221002202290CD10320001BCB
:101AF00007E0002804DB8600AE59002E00D001224A
:101B0000401C0328F5DB081B02D588002A5004E09E
:101B10008000285810438A00A850491EE3D51C466F
:101B20000A98002802980CD0002800D001200199C2
:101B3000019A490508430121D20AC902D202019241
:101B400000E00121109B0122D207012B02D0002BC3
:101B500003D013E0002807D11FE0904204D8904240
:101B60000CD1019B0B4209D0019B5918019105D161
:101B70000099491C009101D1641C009200280CD0EE
:101B8000102108460020C046002F06D011980028DA
:101B900003D0082108460020C04608980999019AF8
:101BA000009B006809684840C10F0798C907214396
:101BB00082600AC00BB0F0BD00B585B00193009201
:101BC0000A460146002302A8FFF7FCFD02A807C849
:101BD00005B000BDFFB50A461F4685B007990193C1
:101BE00001230091014602A8FFF7ECFD029903983A
:101BF000049ECA0F4900D20700920F2249089202A0
:101C00008C1A0021002800DB0C46450013486D08A3
:101C1000844214D3079A002A04DA441E0026104D89
:101C2000F64302E004460D460E4610210846002009
:101C3000C046002F03D0042108460020C0462005DE
:101C4000E90A0843009908436905F20A1143ADE621
:101C500002C0FFFF013C0000FF3F0000FF07000043
:101C6000FFFFFF7F00B585B0019300920A46014651
:101C7000002302A8FFF79CFE02A807C8A8E7FFB54B
:101C80000A461F4685B0079901930123009101463A
:101C900002A8FFF78DFE02990398049ECA0F49001F
:101CA000D20700920F22490892028C1A00210028C4
:101CB00000DB0C46450011486D08844214D3079A96
:101CC000002A04DA441E00260D4DF64302E00446C5
:101CD0000D460E46102108460020C046002F03D0B6
:101CE000042108460020C0462005E90A084300995F
:101CF00008436905F20A114358E60000FF07000097
:101D0000FFFFFF7F10B50446C046C0462046FEF7E1
:101D1000A1FA10BD00487047D404002001491820E2
:101D2000ABBEFEE7260002007047000010B588B089
:101D30000121480400F07EFB022006900320694642
:101D400008770024CC77092006A9C00600F00AFA1B
:101D50000121480200F08AFB684600F08AF80094EE
:101D600069460C71029404940594094C204600F0D5
:101D700065F807220221204600F00CF8204600F00A
:101D80001AF80121204600F00AF808B010BD000042
:101D900000240140836A0B4383624261704700293B
:101DA00004D081680122114381607047816802225A
:101DB000114381607047002182680123DB071A43C9
:101DC00082600F231B038268D20FD207491C9942FD
:101DD00001D0002AF7D18168002901DB006C70472F
:101DE00000207047006C80B2704702460020CB0193
:101DF00004D5926801231B069A4300E012680A4248
:101E000000D001207047000070B50A4D0A4C2946E9
:101E10002046FFF7EAFF0028F9D0204600F024F81A
:101E200004212046FFF7E1FF0028F9D02046FFF704
:101E3000D9FF70BD010000010024014030B5C26827
:101E4000084B1A408C680B680D792343CC686D03EE
:101E50002C4323430C69496923430B431343C36059
:101E600030BD000003D2FFFF81680422114381606E
:101E700070470021016001718160C16001614161B1
:101E8000704700003EB51A4C208800042FD500F0A2
:101E9000B5FF012829D1174A17A1194801F0EAF91D
:101EA000144801F09FF901281AD101AA15A111487F
:101EB00001F020FA6A4615A10E4801F01BFA01A8AC
:101EC00001F00AFD13490862684600780007000F18
:101ED0000A464C3210182038C07FC8700E4908706E
:101EE000FF212D310648FEF7EBFB002020803EBD90
:101EF00088000020C800002077656C636F6D650066
:101F00007802002074696D65000000007765656BDC
:101F100000000000300000209000002070B5114C3F
:101F200000256078002804D0012810D002280BD1A9
:101F300011E009200821C00600F065F900F05AFA06
:101F4000002802D00120607070BD657070BD00F087
:101F50001DFB02206070A57000F0E8FB03202070DC
:101F600070BD000084000020F8B5FFF74DFF1A4C4B
:101F7000E081677809220025012104230226D20688
:101F8000012F08D0278AB8421AD38021104600F0CA
:101F900038F92571F8BD278AB8420BD32078034061
:101FA0003040034301D02171F8BD8021104600F07C
:101FB0002AF9F8BD8021104600F023F92571F8BDFB
:101FC000207803403040034301D02171F8BD8021C7
:101FD000104600F018F9F8BD30000020F8B51A4F8F
:101FE00005017859002817D01849EC19097860685C
:101FF000084201D100060FD5154EA2680920316AAA
:10200000C0068A4209D8E2688A4206D3317901299A
:1020100002D1802100F0F7F8F8BDE2688A42FBD8CF
:102020000A328A42F8D331790129F5D1802100F0B2
:10203000E8F820790006EFD5002078513078400686
:10204000400E3070F8BD0000D80100209000002044
:1020500030000020F8B5424C0727207805250326DC
:10206000030000F09FFE0B07252E324049575F68A2
:102070006D72240000F0AAFA64250926F6060821EC
:10208000304600F0BEF8322001F066F808213046F4
:1020900000F0B9F8322001F05FF86D1EEDB2002DAE
:1020A000EDD10821304600F0AEF801202070F8BDD7
:1020B00000F0E0FA002801D02570F8BD0220207061
:1020C000F8BD00F045FB2670F8BD09200821C006C8
:1020D00000F097F800F008FB002801D02570F8BD4B
:1020E00004202070F8BD00F021FB002801D02670EC
:1020F000F8BD04202070F8BD09200821C00600F0BA
:1021000082F800F0E3FA002801D02770F8BD06201D
:102110002070F8BD00F03AFA002801D02570F8BD13
:102120002670F8BD00F0BCFA002802D0082020700C
:10213000F8BD2770F8BD00F06BFA09202070F8BDDB
:1021400000F034FA0A202070F8BD00F073FA0B207A
:1021500020700121880700F0DFFC0120A070F8BD8D
:1021600084000020F0B500220325012393400C6871
:102170001C409C422AD10C79012C01D0022C12D196
:10218000876854002E46A640B74387604E79A64024
:1021900084682643866084889C43848084888B7905
:1021A00093401C438480066853002C469C40A64301
:1021B00006600E7907689E403E430660C668A643E7
:1021C000C660CC799C40C3681C43C460521C102A72
:1021D000CBD3F0BD10B54B07DB0E9A40C908890080
:1021E0000818016A0F249C40A1430162016A11434F
:1021F000016210BD02460020128A0A4200D001206E
:10220000704701857047816170470000F8B50C4642
:10221000184E0027378001F021F9002C27D0164DE9
:1022200021E00A2000F098FF308800041BD513A09D
:1022300000F05EFF002815D010A000F059FF11A19A
:10224000FEF79CF90FA10020FEF798F90EA1FEF70A
:1022500095F90021421852786A54491CC9B21129D3
:10226000F8D36F743780641E2404240CD9D102483B
:10227000F8BD000088000020B40000205354414DF8
:10228000414300002C0000000D0A0000FEE70000A2
:1022900070B500260924204DE40635E0FF20F53016
:1022A00000F05AFF10212046FFF7A4FF00282BD191
:1022B0002878401CC1B22970062925D12E7008212A
:1022C0002046FFF79EFF154902200870144806704B
:1022D00008212046FFF795FFE62000F03DFF08218A
:1022E0002046FFF790FFE62000F036FF0821204649
:1022F000FFF787FFE62000F02FFF08212046FFF7B9
:1023000082FFE62000F028FF10212046FFF772FF31
:102310000028C3D02E7070BD8E00002086000020E3
:10232000850000201CB50121480400F083F810202E
:10233000009000206946087188710120C87103204F
:1023400048710920C006FFF70DFF1CBDFEB5012135
:10235000480400F06FF808200090012568460571D8
:1023600000248471C471032646710927FF0669465B
:102370003846FFF7F7FE80200090684605718471AB
:10238000C471467169463846FFF7ECFE8021384635
:10239000FFF737FF08213846FFF735FFFEBD7047CE
:1023A00030B5827801240178002A16D08B080E4AB5
:1023B0009B009A1813688907C90EFF258D40AB430F
:1023C0004578AD072D0E8D401D4315600078C00681
:1023D000C00E84400548046030BDC806C00E84406D
:1023E00002488030046030BD00E400E000E100E01D
:1023F0007047000010B50BA001F084FAFF24F534FB
:10240000204600F0A9FE204600F0A6FE06A001F03E
:1024100079FA0A2000F0A0FE142204A104A000F022
:10242000B7FE10BD2B2B2B000D0A00004F4B0000F8
:1024300041540000054A002903D05169014351610C
:10244000704751698143516170470000001002409C
:10245000054A002903D0D1690143D1617047D16990
:102460008143D1617047000000100240054A0029F5
:1024700003D09169014391617047916981439161F2
:102480007047000000100240F8B50446384E7068EE
:102490000C210840374D00281CD004281CD00828E7
:1024A0001CD025607068F02108400009324F3A5C6A
:1024B00020680146D1406160726807231B021A4000
:1024C000120ABA5CD140A160326BD20520D42B4AEB
:1024D000E26025E02560E5E72560E3E771680F200D
:1024E0008004014070680122120410408F0CBF1C50
:1024F000002809D0F06A0107090F491C2846FEF799
:102500005DF978432060CDE71D4847432760C9E760
:102510007268520402D44A08E26001E08A08E2606C
:10252000326B184B520603D4164A1232226100E075
:102530002361326BD20601D4656100E06061326BC9
:1025400092070FD0316B8907890F01290CD0306BAE
:102550008007800F022809D0306BC043800700D16C
:10256000A561F8BDA161F8BDA061F8BDA361F8BD8A
:102570000010024000127A00A0000020809FD500C9
:1025800000093D00008000007047000010B51422D3
:1025900002A103A000F0FCFD10BD00004F4B0000A5
:1025A00041542B434950434C4F53450010B514221E
:1025B00002A103A000F0ECFD10BD00004F4B000095
:1025C00041542B43495053454E44000010B50BA0D5
:1025D00001F098F9FF24F534204600F0BDFD2046B7
:1025E00000F0BAFD06A001F08DF90A2000F0B4FD5C
:1025F000142204A104A000F0CBFD10BD2B2B2B0056
:102600000D0A00004F4B000041542B525354000060
:1026100010B5142202A103A000F0BAFD10BD000005
:102620004F4B000041542B4349504D4F44453D31E1
:102630000000000010B5D4B00B4C6846A168FDF74F
:10264000C3FF68466168FEF713F808496846FEF75D
:102650000FF86846E168FEF70BF8322204A16846DD
:1026600000F096FD54B010BD18000020B40000200A
:102670004F4B000010B5322202A105A000F088FDEA
:1026800010BD00005354415455533A32000000002D
:1026900041542B43495053544154555300000000BA
:1026A00010B50124322105A0FFF7B0FD06490861ED
:1026B000002800D10024204610BD000041542B43C7
:1026C00049465352000000001800002010B505488C
:1026D000C82202A1006800F05BFD10BD434F4E4EC2
:1026E000454354001800002010B5034A03A10AA076
:1026F00000F04EFD10BD000030750000736D61727A
:1027000074636F6E66696720636F6E6E6563746570
:10271000642077696669000041542B435753544144
:102720005254534D4152543D3200000010B5142212
:1027300002A103A000F02CFD10BD00004F4B0000D3
:1027400041542B435753544F50534D415254000062
:1027500010B5142202A103A000F01AFD10BD000064
:102760004F4B000041542B43574D4F44455F444568
:10277000463D31001CB500230193009322480168B7
:102780000122120411430160510005242403026850
:102790000A400092019A521C0192009A002A02D12A
:1027A000019AA242F3D10168890302D50121009167
:1027B00000E000930099012925D1144911220A60F3
:1027C000416841604168416041683F221204914381
:1027D00041604168112212041143416001680122E5
:1027E00012061143016001688901FCD5416889081E
:1027F0008900416041680222114341604168090734
:10280000890F0229FAD11CBD0010024000200240AD
:1028100004220549042803D00869904308617047E1
:10282000086910430861704700E000E0704700004D
:1028300010B5144801680122114301604168124A31
:10284000114041600168114A114001600168012294
:1028500092049143016041683F2212049143416018
:10286000C16A09090901C162016BFF225432914317
:102870000163416B49084900416300218160FFF712
:1028800079FF10BD001002400CB8FFF8FFFFF6FE04
:10289000F8B50121284800F04BF9002846D0012165
:1028A000254800F036F9254A1068401C1060244B7A
:1028B00001210024234D984206D31460287840005B
:1028C0002870000600D529701F48204E0078C207E6
:1028D00000D13170400727D5A868002802D16A6866
:1028E000521C6A606A68002A01D1401CA86018481E
:1028F00009270068FF06824208D36C60A96030781F
:10290000012803D180213846FFF77DFC1149A868D2
:10291000096888420AD3AC603078012806D180214A
:102920003846FFF76EFC01E0AC606C6001210248A4
:1029300000F0EFF8F8BD000000200040500000203B
:102940008051010090000020300000203400002061
:10295000480000204C0000207FB504460D460121B0
:102960000802FFF775FD13206946087001224A70BE
:102970008A706846FFF714FD029469468D80002036
:102980008881C880094C01A9204600F0E9F801219E
:10299000204600F0BBF801221146204600F0D4F892
:1029A0000121204600F0B8F87FBD00000020004063
:1029B000F8B501218F07384600F0BAF8002828D072
:1029C0000121384600F0A5F8144C6078012820D188
:1029D000A078401CA0702078401CC0B22070012656
:1029E0000025142809D12570E1780920C0060029A6
:1029F00007D0E5700821FFF706FCA078282805D04D
:102A000007E0E6700821FFF7FCFBF6E7A570044835
:102A100006700121384600F07CF8F8BD8A000020DD
:102A20002C0000207FB504460D4601210846FFF723
:102A30000FFD029469468D8000208881C8800124A2
:102A4000A40701A9204600F08BF80121204600F0E0
:102A50005DF801221146204600F076F8012120465B
:102A600000F05AF80F2069460870022048700120D3
:102A700088706846FFF794FC7FBD000010B50C4CD1
:102A80000121204600F054F800280CD00948E21338
:102A90000188114301800121204600F03AF800210D
:102AA000204600F039F80121204600F032F810BD30
:102AB00000040040880000207FB505460E46012135
:102AC0000220FFF7C5FC1021684601700024447005
:102AD00001218170FFF764FC02956846868084813D
:102AE000C480094C01A9204600F03AF80121204693
:102AF00000F00CF801221146204600F025F80121D3
:102B0000204600F009F87FBD00040040C94301825F
:102B10007047C94301827047002904D0018801220F
:102B200011430180704701884908490001807047BE
:102B300002460020138A0B4092890A40002B02D0E3
:102B4000002A00D001207047002A03D082890A435E
:102B50008281704782898A438281704741627047CF
:102B600010B50288144B984206D00124A407A04255
:102B700002D0124CA04203D17024A2434C882243BD
:102B80000F4CA04203D00F4C22400C8922430280FC
:102B90004A68C2620A880285984208D00A4A90426E
:102BA00005D00A4A904202D0094A904201D1897A5E
:102BB00001860121818210BD002C014000040040EB
:102BC00000100040FFFC00000040014000440140B4
:102BD0000048014070B5164C1449204600F043F8F7
:102BE00000281CD0204600F0BDF8C4B2114D288842
:102BF000010414D4FF212D31884211D20E4E002140
:102C00003046FFF7ABFF2888002803D1012130466A
:102C1000FFF782FF2888411C298008490C5470BDA9
:102C20000121C9030843288070BD0000050105008B
:102C30000038014088000020000400407802002095
:102C4000002904D001680122114301607047016826
:102C5000490849000160704702460020D2690A42D3
:102C600000D00120704730B500240A04130E01255E
:102C70002A468A40012B0ED0022B0FD083681340C6
:102C8000090C8D40C0692840002B02D0002800D0DC
:102C90000124204630BD03681340F1E74368134028
:102CA000EEE710B50B041C0E01238B40022C02D062
:102CB000032C02D002E0001D00E00830002A03D0FF
:102CC00001681943016010BD01689943016010BD9E
:102CD00030B587B004460D462068400840002060AB
:102CE0006068032109038843A96801436160206883
:102CF00019490840EA68696811432A690243114387
:102D00002160A06803210902884369690143A16029
:102D10006846FFF7B9FB1148844201D1069800E0EC
:102D200002982168090404D540002968FDF746FD92
:102D300002E02968FDF742FD2A6852088A4200D85D
:102D4000401C2168090404D50107490F044A1040BA
:102D50000843A08107B030BDF3E9FFFF0038014010
:102D6000F0FF0000808CC005C00D7047C905C90D7B
:102D700001857047F8B5040C8BB2264682B25E43DB
:102D8000104658430D0C370C3604002180191646A6
:102D900079416E43370C36048019264679416E43DB
:102DA0008919F8BD30B47446641E2578641CAB42A2
:102DB00000D21D46635D5B00E31830BC184700007D
:102DC0004900CA020243100000D004204A0D01D07D
:102DD00001221043044A490D914201D102210843C6
:102DE000012800D105207047FF07000030380A286D
:102DF00001D201207047002070470000F8B5C821BB
:102E00009448FDF75FFC93484621C830FDF75AFC13
:102E1000904A91A1934800F001FA8E4800F0E2F93F
:102E20000924E406002601282BD08FA000F074F9B5
:102E3000002808D00021E000FFF76EFE8F480670E2
:102E40008F490A20087008212046FFF7DAF9282068
:102E500000F082F908212046FFF7D5F9282000F07C
:102E60007BF908212046FFF7CCF9282000F074F9FF
:102E700008212046FFF7C7F9282000F06DF901204E
:102E8000F8BD804A80A1734800F034FA7D4A80A1E1
:102E9000121F704800F02EFA7A4A7FA125326D4841
:102EA00000F028FA6B4A7EA1C8326A4800F002FAA4
:102EB000744A68481B327CA1C83000F01BFA714A82
:102EC0006448921E7AA1C83000F014FA614A7AA1CF
:102ED000C832604800F0EEF96A4A5E482B3278A1A9
:102EE000C83000F007FA674A5A48313275A1C83035
:102EF00000F000FA574A74A1C832564800F0DAF9D7
:102F0000604A544837326EA1C83000F0F3F95D4A88
:102F100050483D326BA1C83000F0ECF9594A4D4899
:102F2000921C6CA1C83000F0E5F9564A49480932B4
:102F30006AA1C83000F0DEF9524869A1001F00F014
:102F400063F9012846D080212046FFF75AF94D4801
:102F50004C4C0078093C207020462E3000F0BCFC20
:102F600020622046243000F0B7FCFDF71BFD5D49D0
:102F700000F064FDFDF7D2FC208259A1E01D00F0B5
:102F800043F9012701282AD066703E482B3000F013
:102F9000A3FCA0613B48313000F09EFCE061394861
:102FA000093000F099FCA07036484FA1801C00F059
:102FB0002BF94E4D01283CD0A078411E0A01A850A3
:102FC0003049891C08780B461D33402809D8000772
:102FD000000E0CE080212046FFF715F9B7E7677077
:102FE000D3E70007000FC0182038C07F00014978E0
:102FF000402903D80907090F014305E00907090F14
:10300000C9182039C97F0143501941601D48373024
:1030100000F062FCA178491E09014919886019482D
:103020003D3000F059FCA178491E09014919C860DA
:103030000BE0A078002800D1A770A078401E000106
:103040002E50401946608660C66000F06BFA002082
:10305000F8BD0000C800002073657276696365736F
:103060000000000078020020436F6E6E6563746993
:103070006F6E3A20636C6F7365000000860000205D
:1030800084000020390000206D6F6465000000009E
:1030900073776F757400000074696D65000000003F
:1030A00061647461736B000076616C75650000008B
:1030B000766F7574000000007265706561740000C1
:1030C000743100007432000074696D657461736B53
:1030D000000000007765656B000000006E756D00F4
:1030E000680000000000F0412D310000D8010020F0
:1030F00010B501460020064A1288130406D5520472
:10310000044B520C98541846FDF74AFA10BD0000C3
:10311000880000207802002010B501460148FDF724
:103120003FFA10BD7802002010B50420C043FFF71D
:103130006FFB074805490068FDF740FB054940B2B1
:1031400008707D22D2005043488010BD0048E8013D
:10315000040000209C0000200B4902228A5E0B49DB
:103160005043486100238B610869012210430861C4
:103170000869C20701D0C003FAD5086940084000B9
:1031800008618B61704700009C00002000E000E0B7
:10319000F7B514460125124E0027378000F05EF97E
:1031A0000198002815D0002C0CD112E00A20FFF75E
:1031B000D3FF3088000405D50198FFF799FF002858
:1031C00004D13780641E2404240CEFD1002C00D1DC
:1031D0000025002D01D00120FEBD0020FEBD000015
:1031E0008800002010B504462046FDF71FFA80B283
:1031F00021787B2904D120182038C07F7D2801D078
:10320000002010BD012010BD10B5FDF793FA002875
:1032100001D0002010BD012010BD0000F8B503460C
:10322000144600200246401C9A5C80B2002AF9D164
:10323000302218182038C2771846FDF7B1F90CA1D2
:10324000FDF7AEF906462C213046FDF7E3F90746B7
:103250003046FDF7EBF905463846FDF7E7F92D1A3C
:103260002A4631462046FDF72FFA00206055F8BD6A
:103270007B000000F8B51546FDF792F90CA1FDF7AB
:103280008FF906467D213046FDF7C4F907463046E2
:10329000FDF7CCF904463846FDF7C8F9241A224652
:1032A00031462846FDF710FA00202855F8BD0000E9
:1032B0007B000000F8B51546FDF772F90CA1FDF78B
:1032C0006FF906467D213046FDF760F90746304626
:1032D000FDF7ACF904463846FDF7A8F9241A641C3A
:1032E000224631462846FDF7EFF900202855F8BD63
:1032F0007B000000F8B50C4616462146FDF750F954
:1033000005462046FDF792F9C0B22C180027002D83
:103310000CD0203DE87F222808D12078222805D132
:1033200060783A2802D1A078222802D03770002095
:10333000F8BDE41C06A12046FDF732F9001BC5B21A
:103340002A4621463046FDF7BFF977550120F8BDE2
:1033500022000000FF24FFF7E7FE2F4DC82029467A
:10336000FFF7AAFB29463220FFF75CFB7D202946A8
:10337000C000FFF7F1FAE120400200F0EBFAFEF79F
:10338000D5FCFEF7E3FFFEF7CDFF0027234DFEF748
:103390007FFF2878012806D121480178012902D130
:1033A000077000F0BFF81F4E3078002816D0C00715
:1033B00006D0641EE4B2002C02D1FF24FEF7D4FD37
:1033C000307880070AD5184E3078FEF707FE30783F
:1033D000401CC0B230700A2800D137701348007802
:1033E00000280BD0012812D00228D0D12F70002144
:1033F0004007FFF791FBFEF791FDC8E72F70012012
:1034000000218007FFF788FBFEF724FEBFE70120BD
:103410002870FEF737FDBAE71F1C00008B00002064
:103420002C0000203000002000000020860000203A
:10343000F8B505460E460024074F0AE0295D3846D8
:10344000FFF794FC80213846FFF706FC0028F9D0EE
:10345000641CB442F2DBF8BD0038014010B50146EF
:1034600001A000F04FFA10BD25730D0A0000000006
:10347000F0B5CFB0044601206D4628700021697078
:10348000A87028722046FDF7D1F8019037206872A5
:10349000FA20A8722120E8723D202873019B802227
:1034A00004A82A748121297401216A746E467E2B36
:1034B0000CD21A4369464A7402210022B5186D7A6B
:1034C0004554491C521C042AF8DB13E01A46144DDB
:1034D0007E3AAA420ED2FE216A465174190A9174AC
:1034E000D37404210022B5186D7A4554491C521C2E
:1034F000042AF8DB00220CE0D517AD0FAD18AD089B
:10350000AD00551BAD196D7AA75C7D404554491C33
:10351000521C9A42F0D304A8FFF78AFF4FB0F0BDC7
:1035200082FF000070B5D6B00026ABA103A8FDF75E
:103530004BF8AF48016803A8FDF79AF8ADA103A8BE
:10354000FDF796F8AFA103A8FDF792F8B348B6A12E
:1035500000780090B2480378B24802784EA8FCF791
:10356000ADFE4EA903A8FDF783F8B2A103A8FDF7AD
:103570007FF8B1A103A8FDF77BF8B5A1B548FFF727
:1035800043FE01280AD0B4A1B248FFF73DFE01284E
:1035900004D0B1A2B1A1AF48FCF790FE0920802170
:1035A000C006FEF727FE012834D0ABA2ABA1A94884
:1035B000FCF784FEA74903A8FDF75AF8A8A103A8C1
:1035C000FDF756F8FEF720FC1E21FDF7F7F804463C
:1035D000642C00D364249F4D6D1F2878C00700D051
:1035E00001261E21288AFDF7E9F8697800910190EB
:1035F000234632469DA14EA8FCF760FE4EA903A8C3
:10360000FDF736F8287840070AD59BA103A8FDF7F7
:103610002FF809E08EA291A18E48FCF74FFEC9E772
:1036200099A103A8FDF724F89BA14EA8EB69AA690C
:10363000FCF744FE4EA903A8FDF71AF898A103A8C9
:10364000FDF716F89A4C2068002801D0012200E00E
:103650000022E168A0680191009096A14EA86368DD
:10366000FCF72CFE4EA903A8FDF702F820690028FC
:1036700001D0012200E00022E169A06901910090DF
:103680008CA14EA86369FCF719FE4EA903A8FCF7AC
:10369000EFFF206A002801D0012200E00022E16A49
:1036A000A06A0191009083A14EA8636AFCF706FE10
:1036B0004EA903A8FCF7DCFF206B002801D00122F3
:1036C00000E00022E16BA06B0191009079A14EA86F
:1036D000636BFCF7F3FD4EA903A8FCF7C9FF206C50
:1036E000002801D0012200E00022E16CA06C0191D1
:1036F000009070A14EA8636CFCF7E0FD4EA903A8F2
:10370000FCF7B6FF206D002801D0012200E0002266
:10371000E16DA06D0191009066A14EA8636DFCF76C
:10372000CDFD4EA903A8FCF7A3FF206E002801D011
:10373000012200E00022E16EA06E019100905DA1E7
:103740004EA8636EFCF7BAFD4EA903A8FCF790FFE4
:10375000206F002801D0012200E00022E16FA06F5D
:103760000191009053A14EA8636FFCF7A7FD4EA9ED
:1037700003A8FCF77DFF4E4C80342068002801D060
:10378000012200E00022E168A0680191009049A1B7
:103790004EA86368FCF792FD4EA903A8FCF768FFEA
:1037A0002069002801D0012200E00022E169A0691F
:1037B0000191009043A14EA86369FCF77FFD4EA9DB
:1037C00003A8FCF755FF43A103A8FCF751FF03A88A
:1037D000FFF74EFE56B070BD7B226964223A225339
:1037E00057545A5F576966694D6F64756C655F0021
:1037F00028000020222C22746F223A2275736572F1
:10380000222C0000226465627567223A7B22766171
:10381000726961626C65223A220000008400002017
:10382000850000209000002025642C25642C256450
:1038300000000000227D2C002273657276696365AA
:1038400073223A7B2273776F7574223A220000004C
:1038500068000000350000206C00000025730000A7
:10386000222C22616463223A2200000025642C2568
:10387000642C25642C256400222C227265706561FD
:1038800074223A22312C0000222C2272657065616C
:1038900074223A22302C000025642C25640000009C
:1038A000222C2274696D657461736B223A220000C8
:1038B000D801002025642C2532642C25642C256435
:1038C0002300000025642C2532642C25642C2564FB
:1038D00000000000227D7D000346002000215A5C8C
:1038E000002A0DD0303A092A09D80A2250430A4644
:1038F0009A5C491C1207120FC9B28018EFE700202A
:10390000704700000FB4F8B507AA10480699FCF7F5
:10391000C3FC002000900D48FCF788FE85B200240F
:103920000B4E0A4F0BE040213046FFF795F9002877
:10393000F9D0395D3046FFF719FA641CA4B2AC42E5
:10394000F1D3F8BC08BC04B018470000A80300205D
:1039500000380140F0B589B0074601214804FEF760
:1039600069FD01218803FEF781FD0921CE060122B0
:103970003046FEF72FFC01220A213046FEF72AFCD2
:10398000032040020790022108A801700321417022
:10399000002484700125C57007A93046FEF7E2FBBC
:1039A000019702940394049406940C2005900B4C08
:1039B00001A92046FFF78CF9012209492046FFF7AB
:1039C00070F901212046FFF73BF91B216846017081
:1039D00045708570FEF7E4FC09B0F0BD0038014089
:1039E0000501050010B500290AD00878002807D085
:1039F00005487844FCF79EFE002801D0002010BD49
:103A00000248784410BD0000960300008E030000B9
:103A100010B500290AD00878002807D00548784456
:103A2000FCF788FE002801D0002010BD0248784431
:103A300010BD0000860300007E03000070B5420048
:103A400064414B005C41120E39D01B0E38D0FF2A66
:103A50003CD0FF2B3AD040024902400A490A0600F6
:103A600045184E43000A090AD2184843ED017F3A2F
:103A70000104731A4019190C4318990F04D001213D
:103A80005B0849075B1A521CD80904D3401CF50394
:103A900001D19D0607D0FF2A08D2D50506D0E4073C
:103AA0002043401970BD0125A843F4E7002A01DC3A
:103AB000E00770BD2402FF202043C00570BD1B0E2F
:103AC000FF2A03D0FF2B01D0E00770BDFF26450081
:103AD0003606B54206D84D00B54203D8D218FF2AA3
:103AE00000D0E7E7004870BD0000C07F03B4024883
:103AF0007844844603BC6047D7D4FFFF03B4024830
:103B00007844844603BC604741D7FFFF04000008A7
:103B10000000000000000002000100001000000092
:103B200000000000000000003031323334353637F9
:103B300038394142434445464030580030313233F1
:103B400034353637383961626364656640307800F1
:103B50003031323334353637383961626364656603
:103B6000787000303132333435363738394142439A
:103B7000444546585000000002400000000000A0EC
:103B80000000000005400000000000C80000000028
:103B90000C4000000000409C0000000019400000A4
:103BA0000020BCBE0000000034400000BFC91B8ED6
:103BB00000000004B5400000504BCFD06607E2CFB4
:103BC000010000006C4100003E8251AADFEEA734E4
:103BD00001000000D9420000DCB5A0E23A301F9796
:103BE000FFFFFFFFB4450000FD25A0C8E9A3C14FBA
:103BF000FFFFFFFFFF3F000000000080000000000B
:103C0000FF3F0000000000800000000020485454E6
:103C1000502F312E310D0A486F73743A203464638B
:103C20006C6173732E6E65740D0A557067726164F2
:103C3000653A20776562736F636B65740D0A436F35
:103C40006E6E656374696F6E3A2055706772616459
:103C5000650D0A5365632D576562536F636B657419
:103C60002D4B65793A206447686C49484E68625824
:103C700042735A5342756232356A5A513D3D0D0ABC
:103C80004F726967696E3A20687474703A2F2F34E6
:103C900064636C6173732E6E65740D0A5365632DD6
:103CA000576562536F636B65742D50726F746F63E9
:103CB0006F6C3A20636861742C2073757065726351
:103CC0006861740D0A5365632D576562536F636BAA
:103CD00065742D56657273696F6E3A2031330D0A23
:103CE000557365722D4167656E743A20455350389F
:103CF0003236360D0A00000047455420687474704F
:103D00003A2F2F3464636C6173732E6E65742F5772
:103D10006562536F636B65742F636861742F000075
:103D200041542B43495053544152543D2254435023
:103D3000222C223464636C6173732E6E6574222CA2
:103D400038300000464646464646464646464646C3
:103D5000460000005357545A5F576966694D6F64B7
:103D6000756C655F00000000B43E00080000002094
:103D7000B400000004010008683F0008B4000020FF
:103D8000840A0000200100081C000000430000001D
:103D9000F8FFFFFF0C0000000E0000000F00000005
:103DA0002E0000001001000043000000F8FFFFFF9C
:103DB000004040404040404040404141414141403E
:103DC00040404040404040404040404040404040F3
:103DD0004005020202020202020202020202020282
:103DE0000220202020202020202020020202020287
:103DF00002029090909090901010101010101010DF
:103E000010101010101010101010101002020202EA
:103E1000020288888888888808080808080808082E
:103E2000080808080808080808080808020202022A
:103E30004000000000000000000000000000000042
:103E40000000000000000000000000000000000072
:103E50000000000000000000000000000000000062
:103E60000000000000000000000000000000000052
:103E70000000000000000000000000000000000042
:103E80000000000000000000000000000000000032
:103E90000000000000000000000000000000000022
:103EA0000000000000000000000000000000000012
:103EB0000000000000000000006CDC0200000000B8
:103EC000000000000102030406070809203D000865
:103ED000543D0008F83C00080C3C0008443D000834
:103EE0000000000000000000006C006C00000000FA
:103EF00000000000000000000000000000000000C2
:103F00000000000000000000000000000A0B0C0D83
:103F10000E0F000000000000000000000000000084
:103F20000000000000000000000000000000000091
:103F30000102040810204080000000000000000082
:103F40000000000001000000000000000000000070
:103F5000000000000000000001020304010203044D
:083F600006070809000000003B
:04000005080000C12E
:00000001FF
